:020000040800F2
:100000004057002085020008194200087334000898
:100010001542000831060008D55100080000000014
:10002000000000000000000000000000A90100081E
:10003000B907000800000000FD010008A9440008FD
:100040009F0200089F0200089F0200089F0200080C
:100050009F0200089F0200089F0200089F020008FC
:100060009F0200089F0200089F0200087D07000809
:100070009F0200089F0200089F0200089F020008DC
:100080009F0200089F0200089F0200089F020008CC
:100090009F0200089F0200089F0200089F020008BC
:1000A0009F0200089F020008E14500089F02000827
:1000B000F14500089F020008000000009F020008B0
:1000C0009F0200089F0200089F0200089F0200088C
:1000D0009F020008C15100089F0200089F0200080B
:1000E0009F0200089F0200080000000000000000BE
:1000F0000000000000000000000000000000000000
:10010000000000009F020008000000009F0200089D
:100110009F020008000000009F020008000000008D
:100120009F0200089F0200089F0200089F0200082B
:100130009F0200089F0200089F02000800000000C4
:100140009F0200089F0200089F0200089F0200080B
:100150009F0200089F0200089F0200089F020008FB
:100160009F0200089F0200089F0200080000000094
:10017000000000009F0200080000000000000000D6
:100180009F0200089F0200089F0200089F020008CB
:100190009F020008DFF80CD000F024F90048004767
:1001A000DF5B0008405700202B4B1968086800F0FF
:1001B00058B880F30988BFF36F8F4FF0000080F3C9
:1001C000118870470000000006480068006880F34E
:1001D000088862B661B6BFF34F8FBFF36F8F00DF41
:1001E00000BF00BF08ED00E0DFF80C00016841F43B
:1001F00070010160704700BF88ED00E0EFF30980F7
:10020000BFF36F8F144B1A681EF0100F08BF20ED5C
:10021000108A20E9F04F106008B44FF0500080F3CE
:100220001188BFF34F8FBFF36F8F06F05DFC4FF067
:10023000000080F3118808BC1968086800F016B83F
:100240001EF0100F08BF00F016B880F30988BFF346
:100250006F8F704700BF00BF1C000020EFF30580C8
:10026000704730C8B0E8C04FFFF7A3BF30C8B0E850
:10027000C04FFFF7E5BFB0EC088AB0EC08CAFFF743
:10028000E4BF00000648804706480047FEE7FEE757
:10029000FEE7FEE7FEE7FEE7FEE7FEE7FEE7FEE736
:1002A00091450008950100082DE9F05F0546002002
:1002B00092469B4688460646814640241BE02846D7
:1002C00041464746224600F07DF853465A46C01A3A
:1002D000914110D311461846224600F064F82D1AB9
:1002E00067EB01084F4622460120002100F05BF831
:1002F00017EB00094E41201EA4F10104DFDC484643
:1003000031462A46434600F000B830BCBDE8C09FE5
:10031000004870474075000810B5431A934209D24F
:100320008318881803E010F8011D03F8011D521E00
:10033000F9D210BD40EA01039B0703D009E008C9C8
:10034000121F08C0042AFAD203E011F8013B00F89A
:10035000013B521EF9D210BDD2B201E000F8012BD0
:10036000491EFBD270470022F6E710B513460A4635
:1003700004461946FFF7F0FF204610BD421C10F856
:10038000011B0029FBD1801A704710B5002200E044
:10039000521C835C8C5CA34201D1002BF8D1D8B2F3
:1003A000E1B2401A10BD202A04DB203A00FA02F123
:1003B000002070479140C2F1200320FA03F3194353
:1003C00090407047202A04DB203A21FA02F00021F5
:1003D000704721FA02F3D040C2F120029140084355
:1003E00019467047064C074D06E0E06840F00103EF
:1003F00094E8070098471034AC42F6D3FFF7CEFEDE
:10040000587500087875000870B50546AC6AE06D4F
:1004100000F05000A8BBE06D40F40070E06520687B
:10042000006800F00800082816D12068C06800F4B1
:10043000406010BB2068C06800F40050E8B9E06D6F
:1004400020F48070E065E06D00F48050A8B9E06DA4
:1004500040F00100E06510E02068C06800F0020094
:1004600058B9E06D20F48070E065E06D00F48050D4
:1004700018B9E06D40F00100E065204600F096FC00
:100480000DE0FFE7E06D00F01000102803D12046DA
:1004900000F08EFC03E0606D416B2846884770BD1C
:1004A00070B50546AC6AE06D40F04000E065206E36
:1004B00040F004002066204600F07AFC70BD70B564
:1004C0000446A56A284600F072FC70BD70B504466B
:1004D00000252068806800F00300012806D120680C
:1004E000006800F0010008B1012000E0002080B3A6
:1004F0002068806800F00D00012800D100E0002095
:1005000050B120688168174A1140891C816000BF82
:1005100003202168086009E0E06D40F01000E0650C
:10052000206E40F001002066012070BD01F05EF8F1
:1005300005460FE001F05AF8401B02280AD9E06D89
:1005400040F01000E065206E40F0010020660120C0
:10055000EBE705E02068806800F001000028E9D1A1
:100560000020E2E7C0FFFF7F38B5044600250020E9
:1005700000902068806800F00300012806D1206800
:10058000006800F0010008B1012000E00020002810
:1005900046D1206880682349084008B9012000E05E
:1005A000002048B9E06D40F01000E065206E40F09A
:1005B00001002066012038BD206802F05DFF1A4866
:1005C00000681A49B0FBF1F000EB80004000009099
:1005D00002E00098401E009000980028F9D101F038
:1005E00005F8054616E02068816801F0010111B99F
:1005F000206802F041FF00F0F9FF401B022809D9F2
:10060000E06D40F01000E065206E40F001002066D3
:100610000120D0E72068006800F001000028E2D047
:100620000020C8E73F0000806400002080841E0096
:1006300000BFFEE71CB503220021012006F052FB9B
:10064000104908600846006830B100231A46194670
:100650000C48006806F0BEFB0B490C48006805F02A
:1006600003FB0B490948006805F0EDFB0020012160
:1006700003460A02CDE9001006A10B4806F0C4FCAF
:100680001CBD000078000020255F000870000020DD
:1006900041580008434D4420696E74657266616379
:1006A00065207461736B0000AD0600081748006890
:1006B000006840F020001549096808600A2006F02B
:1006C0005FF900201249C1F80001C1F804011CE0E3
:1006D0000F48D0F800010E49D1F80411884214D017
:1006E0000B48D0F800010A490C5C0846D0F800011C
:1006F000401CC1F80001084690F80001C1F8000153
:1007000021460448006805F0C1FAE1E738120020EC
:10071000341500207000002070B505462868808CD4
:10072000C4B2FFF7F5FD0068005D00F0380040B985
:10073000FFF7EEFD0068005D00F0010008B90A2C2B
:1007400019D10D4890F804010B4991F80011401A95
:10075000C0B2FF280FD00848D0F8040106490C5455
:100760000846D0F80401401CC1F80401084690F87E
:100770000401C1F8040170BD3415002010B5024811
:1007800000F0FCFC10BD0000F011002030B590F826
:1007900044500124AC40056C6C600468636084685C
:1007A000102C04D10468A2600468E16003E00468CE
:1007B000A1600468E26030BD70472DE9F041044655
:1007C0000D460026002700BF94F85800012802D1EA
:1007D0000220BDE8F081012084F8580000BF2046C7
:1007E000FFF774FE064696BBE06D20F4885040F09B
:1007F0000200E0652068806820F08040284321687E
:1008000088602068806840F000402168886010E0BF
:100810007F1CB7F57A4F0CD3E06D20F0020040F05A
:100820001000E06500BF002084F8580000BF0120E0
:10083000CFE72068806800F00040B0F1004FE7D0BB
:10084000E06D20F0020040F00100E06504E0FFE709
:10085000E06D40F01000E06500BF002084F8580013
:1008600000BF3046B5E700002DE9F84305460C46C9
:10087000002700200090F649E068884200D000E0A0
:1008800000BF00BF95F85800012802D10220BDE842
:10089000F883012085F8580000BF286802F007FEA1
:1008A00000287CD1606805281AD86068022806D024
:1008B000032807D0042808D005280DD108E00C2013
:1008C00060600CE01220606009E01820606006E0C3
:1008D0004FF48070606002E00620606000BF00BFDF
:1008E0002968D4E9002000F4407C4FF4407898FA5D
:1008F000A8F8B8FA88F82CFA08FC01F1300808EBDF
:100900008C0300F01F094FF01F0808FA09F8D3F80C
:1009100000C02CEA080C00F01F09C2F3846808FA32
:1009200009F84CEA080CC3F800C000BF28688068CA
:1009300000F00C0008B1012000E0002000283CD1AC
:10094000A068B0F1004F0AD121680022286802F0A7
:10095000BBFD4FF00041286802F0F0FD08E0A268FE
:100960002168286802F0B0FD0021286802F0E6FD49
:1009700060692968C968C1F3C101490000FA01F63C
:10098000206904281AD028682268216900F1600CC7
:100990000CEB8103DFF8BC82D3F800C000E0EBE190
:1009A0000CEA080C02F0F84848F0004848EA06084B
:1009B0004CEA080CC3F800C000BFA7E0002128687B
:1009C00002F067FDC0F3120030B90021286802F080
:1009D00060FDC0F3846007E00021286802F059FD43
:1009E00090FAA0F0B0FA80F02168C1F3120119B9B1
:1009F0002168C1F3846104E0216891FAA1F1B1FAA0
:100A000081F1884204D100221146286802F08BFD52
:100A10000121286802F03DFDC0F3120030B9012128
:100A2000286802F036FDC0F3846007E001212868E1
:100A300002F02FFD90FAA0F0B0FA80F02168C1F327
:100A4000120119B92168C1F3846104E0216891FAA7
:100A5000A1F1B1FA81F1884204D100220121286874
:100A600002F061FD0221286802F013FDC0F31200BC
:100A700030B90221286802F00CFDC0F3846007E061
:100A80000221286802F005FD90FAA0F0B0FA80F08B
:100A90002168C1F3120119B92168C1F3846104E02E
:100AA000216891FAA1F1B1FA81F1884204D10022C2
:100AB0000221286802F037FD0321286802F0E9FCD2
:100AC000C0F3120030B90321286802F0E2FCC0F341
:100AD000846007E00321286802F0DBFC90FAA0F0B4
:100AE000B0FA80F02168C1F3120119B92168C1F38D
:100AF000846104E0216891FAA1F1B1FA81F18842A0
:100B000004D100220321286802F00DFD28688068C6
:100B100000F00300012806D12868006800F00100F9
:100B200008B1012000E0002000287CD12868E2689C
:100B30002168D0F8B030C1F3120C23EA0C03C1F3E2
:100B4000120C02F02009DFF8108108FA09F80CEA0B
:100B5000080C43EA0C03C0F8B03000BF3C49E06821
:100B6000884274D12368C3F312031BB92368C3F30B
:100B7000846304E0236893FAA3F3B3FA83F35B1C62
:100B8000092B38D82368C3F312031BB92368C3F3B6
:100B9000846304E0236893FAA3F3B3FA83F35B1C42
:100BA0004FF0010C0CFA03FC2368C3F312031BB9CA
:100BB0002368C3F3846304E0236893FAA3F3B3FACE
:100BC00083F35B1C4CEA836C2368C3F312031BB9E9
:100BD0002368C3F3846304E0236893FAA3F3B3FAAE
:100BE00083F35B1C03EB43034FF0000848EA035315
:100BF0004CEA030340E02368C3F312031BB92368E4
:100C0000C3F3846304E0236893FAA3F3B3FA83F392
:100C10005B1C4FF0010C0CFA03FC2368C3F31203B6
:100C20002BB9236800E07BE0C3F3846304E023680E
:100C300093FAA3F3B3FA83F35B1C4CEA836C236847
:100C4000C3F3120353B92368C3F384630BE018E0C2
:100C500000007F4000F0FF03FFFF0700236893FAC6
:100C6000A3F3B3FA83F3093B03EB43034FF000789C
:100C700048EA03534CEA03031946A268286802F0C5
:100C800023FC43492068884205D1424802F0FCFB1E
:100C900000F4000098B140492068884205D13D48E1
:100CA00002F0F2FB00F0807048B13C4920688842B5
:100CB00067D1384802F0E8FB00F4800080BB286868
:100CC000806800F00300012806D12868006800F061
:100CD000010008B1012000E00020A0BB00BF2C49AA
:100CE000206888421DD12E492868884249D1294868
:100CF00002F0CAFB40F400084146264802F00DFC11
:100D0000284800682849B0FBF1F0C0EB0010C00093
:100D1000009002E00098401E009000980028F9D151
:100D20002FE01D49206888420ED11D49286888425D
:100D300027D1184802F0A8FB40F0807841461548BA
:100D400002F0EBFB1DE011E014492068884218D145
:100D500013492868884214D10E4802F095FB40F4EC
:100D6000800841460B4802F0D8FB0AE0E86D40F0ED
:100D70002000E865012704E0E86D40F02000E86508
:100D8000012700BF002085F8580000BF38467EE5E7
:100D9000000052C700030450000084CB0100008013
:100DA000000004506400002080841E0070477047DB
:100DB00070470000F8B5044600260025002000908A
:100DC0000CB90120F8BD206918B1606A012800D172
:100DD00000BFE06D30B9204600F0E6F80020206644
:100DE00084F8580020688168C1F3407131B12068EF
:100DF0008168674A1140816000BF00BF206802F02F
:100E000051FBB8B920688168624A114041F08051B5
:100E1000816000BF604800686049B0FBF1F000EB02
:100E200080004000009002E00098401E0090009872
:100E30000028F9D1206802F035FB40B9E06D40F0A0
:100E40001000E065206E40F0010020660126E06D94
:100E500000F01000002872D1206802F028FB002862
:100E6000F9D1E06D20F4807040F00200E065206868
:100E7000806800F00300012806D12068006800F0B7
:100E8000010008B1012000E0002050B900BF6068F7
:100E90004349896821F47C110143414A916000BFB4
:100EA00000BFA16BE06941EA4030E1680843A168F6
:100EB0000843A18C40EA0145606A012803D1208DD6
:100EC000401E45EA4045E06A28B1A08D00F47070EC
:100ED000216B084305432068C06832490840284315
:100EE0002168C8602068806800F00C0008B101200B
:100EF00000E0002010BB216DA06941EA8031606BE9
:100F000041EA40052068C06844F20601884328434E
:100F10002168C860E06B012812D1206C40F001010B
:100F2000606C0843A16C0843E16C084321680969BF
:100F300040F2FC72914308432168086106E01FE01B
:100F40002068006920F001002168086120690128FB
:100F500009D12068006B20F00F00216A491E084368
:100F60002168086305E02068006B20F00F0021680D
:100F70000863E06D20F0020040F00100E06504E04D
:100F8000E06D40F01000E065012630461AE70000F1
:100F9000C0FFFF5FC0FFFF7F6400002080841E0051
:100FA0000003045007C0F0FF10B586B004461E4988
:100FB0002068884236D100BF1C48C06C40F4005005
:100FC0001A49C8640846C06C00F40050009000BF85
:100FD00000BF032001900B2002900020039001A984
:100FE000134800F00FFA13481349086000204860C6
:100FF000002111488160C160802101614900416187
:10100000890081612021C1610021016200F02AF97B
:1010100018B19E2109A004F0DFF800BF0648606502
:10102000846200BF06B010BD0000045000100240F2
:101030000008004808000240F01100202E2E2F5317
:1010400072632F6164632E63000000002DE9F0419C
:1010500004460D4616460027206802F028FA0028AC
:1010600057D100BF94F85800012802D10220BDE8F2
:10107000F081012084F8580000BF2046FFF774FA81
:101080000746002F40D1E06D40F60161884340F4EF
:101090008070E065E06D20F48010E065E06D00F4A4
:1010A0008050B0F5805F04D1206E20F006002066ED
:1010B00001E0002020661848616DC8621748616D24
:1010C00008631748616D48631C202168086000BFF1
:1010D000002084F8580000BF2068406840F01000ED
:1010E000216848602068C06840F001002168C8603D
:1010F000226802F1400133462A46606D00F034F95F
:10110000206802F0D9F905E000BF002084F85800FB
:1011100000E002273846AAE709040008BF040008D7
:10112000A104000870B50446002594F825000228A3
:1011300003D00420E06301251EE02068006820F051
:101140000E00216808602068006820F00100216816
:10115000086094F8441001208840216C4860012008
:1011600084F8250000BF002084F8240000BFA06B95
:1011700010B12046A16B8847284670BD70B5044663
:10118000206C05682068066894F8441004208840A4
:101190002840D0B106F00400B8B12068006800F023
:1011A000200028B92068006820F004002168086049
:1011B00094F8441004208840216C4860206B00287B
:1011C0004ED02046216B88474AE094F84410022014
:1011D0008840284008B306F00200F0B1206800689B
:1011E00000F0200040B92068006820F00A00216863
:1011F0000860012084F8250094F8441002208840FB
:10120000216C486000BF002084F8240000BFE06A21
:1012100030B32046E16A884722E094F84410082061
:1012200088402840E0B106F00800C8B12068006896
:1012300020F00E002168086094F8441001208840D6
:10124000216C48600120E06384F8250000BF002085
:1012500084F8240000BF606B10B12046616B8847A2
:1012600070BD000010B50146002209B9012010BD73
:101270003B4B086898420BD23A4B0868C01A1423BB
:10128000B0FBF3F0800048643648083808640AE090
:10129000334B0868C01A1423B0FBF3F08000486495
:1012A0002F4808380864022081F825000868026881
:1012B00047F6F0708243D1E9020318430B691843E3
:1012C0004B6918438B691843CB6918430B6A184361
:1012D0000243086802608868B0F5804F32D0214B25
:1012E000083B086C984217D1D0F8A80091F8444008
:1012F0000F23A34098431B4BA033186091F8443050
:1013000048689840174B083BD3F8A8301843154B52
:10131000083BC3F8A80015E01148A030006891F818
:1013200044400F23A34098430D4BA033186091F81D
:101330004430486898400A4BA0331B681843084B58
:10134000A03318600020C862086348638863C863DC
:10135000012081F82500002081F8240000BF86E7E5
:1013600008040240080002402DE9F04104460D4601
:1013700016461F464FF0000800BF94F824000128CD
:1013800002D10220BDE8F081012084F8240000BFD2
:1013900094F8250001282CD1022084F82500002093
:1013A000E0632068006820F00100216808603B4687
:1013B000324629462046FFF7E9F9206B30B1206814
:1013C000006840F00E00216808600BE020680068AB
:1013D00020F00400216808602068006840F00A00DE
:1013E000216808602068006840F0010021680860FA
:1013F00006E000BF002084F8240000BF4FF0020880
:101400004046BFE778B50346002200240020CBE029
:10141000012696400D6805EA0604002C72D04D683E
:10142000022D02D04D68122D13D1D60803F12005EC
:1014300055F826005507EE0E0F25B540A843560770
:10144000F60E0D69B5402843D60803F1200545F88E
:101450002600186856000325B540A8430D7905F00D
:1014600003055600B540284318604D68012D08D08B
:101470004D68022D05D04D68112D02D04D68122DFA
:1014800013D1986856000325B540A8435600CD688F
:10149000B54028439860586801259540A8430D79C8
:1014A000C5F30015954028435860D86856000325B9
:1014B000B540A84356008D68B5402843D8604D68B4
:1014C00005F08055B5F1805F6DD100BF394D2D6EAF
:1014D00045F00105374E356635462D6E05F00105A0
:1014E000009500BF00BF4FEAB635960855F82600B4
:1014F00095072E0F0F25B540A843B3F1904F02D1A9
:10150000002515E04FE02C4DAB4201D101250FE045
:101510002A4DAB4201D102250AE0294DAB4201D14F
:10152000032505E0274DAB4201D1042500E0072546
:101530009607360FB5402843234D960845F82600F8
:10154000224D2868A0434D6805F48035B5F5803FED
:1015500000D120431D4D28602D1D2868A0434D68F3
:1015600005F40035B5F5003F00D12043174D2D1D82
:1015700028602D1D2868A0434D6805F48015B5F539
:10158000801F00D12043114D083528602D1D28688B
:10159000A0434D6805F40015B5F5001F00D12043A8
:1015A0000A4D0C352860521C0D68D540002D7FF483
:1015B0002FAF78BD0010024000040048000800482A
:1015C000000C0048001000480800014000040140E1
:1015D000024613690B400BB1012000E00020704768
:1015E0000AB1816100E08162704700000148006833
:1015F000704700000000002002480068401C0149BC
:10160000086070470000002010B5032000F0B2F819
:101610000F2000F005F800F017F8002010BD0000C2
:1016200070B50446074800684FF47A71B0FBF1F5D5
:10163000284601F003F800222146501E00F059F818
:10164000002070BD6400002008B500BF2148006E76
:1016500040F001001F4908660846006E00F00100D6
:10166000009000BF00BF00BF0846806D40F0805072
:1016700088650846806D00F08050009000BF00BF74
:10168000032000F077F8002211466FF00B0000F005
:1016900030F8002211466FF00A0000F02AF800220C
:1016A00011466FF0090000F024F800221146501F87
:1016B00000F01FF800221146101F00F01AF8002257
:1016C0000F21901E00F015F800220F21501E00F08F
:1016D00010F808BD0010024000BF00F01F020121F9
:1016E00091404209920002F1E022C2F8001100BFCD
:1016F00070472DE9F05F80460D461646002702F040
:101700008DFD074639462A46334601F00700C0F1F1
:10171000070ABAF1040F02D94FF0040A01E0C0F140
:10172000070AD14600F1040ABAF1070F02D24FF0BE
:10173000000A01E0A0F1030AD4464FF0010A0AFAB8
:1017400009FAAAF1010A0AEA020A0AFA0CFA4FF0A7
:10175000010B0BFA0CFBABF1010B0BEA030B4AEA92
:101760000B042146404602F061FD00F000B830BC99
:10177000BDE8C09F00BF00F00702064B19684FF696
:10178000FF031940044B0B4343EA0221014B19604C
:1017900000BF70470CED00E00000FA050246002192
:1017A000B2F5007F29D11D48006800F4C060B0F593
:1017B000007F31D01948006820F4C06040F4007008
:1017C000164B186016480068164BB0FBF3F0322336
:1017D00000FB03F100E0491E31B11048406900F4FC
:1017E0008060B0F5806FF6D00C48406900F48060EE
:1017F000B0F5806F10D1032070470848006800F4EE
:10180000C060B0F5806F07D00448006820F4C06065
:1018100040F48060014B18600020EDE7007000404C
:101820006400002040420F000248006800F4C060DD
:1018300070470000007000402DE9F8430446002680
:1018400000270025A846208800F40060B0F5006F4E
:1018500026D1E06C68B1B0F5000F03D0B0F5400FB1
:101860000ED10CE0F748C06840F48030F549C860FC
:1018700008E00021201D02F0EDFC054602E001E039
:10188000012500BF00BF55B9EE488830006820F43C
:101890004000E16C0843EB49C1F8880000E0A8462D
:1018A000206800F40030B0F5003F74D14FF000091B
:1018B000E448806D00F0805078B900BFE148806D49
:1018C00040F08050DF4988650846806D00F0805008
:1018D000009000BF00BF4FF00109DB48006840F4F2
:1018E0008070D9490860FFF781FE074606E0FFF7E0
:1018F0007DFEC01B022801D9032505E0D2480068FF
:1019000000F480700028F2D000BF7DBBCD4890303D
:10191000006800F44076CEB1606EB04216D0C9487F
:101920009030006820F44076C648D0F8900040F42B
:101930008030C449C1F890000846D0F8900020F4E7
:101940008030C1F890000846C0F8906006F00100B1
:10195000A8B1FFF74BFE074609E0FFF747FEC01BA3
:1019600041F28831884202D9032507E016E0B548E4
:101970009030006800F002000028EED000BF5DB992
:10198000B0489030006820F44070616E0843AD4963
:10199000C1F8900003E00CE0A84600E0A846B9F1C9
:1019A000010F05D1A748806D20F08050A5498865BA
:1019B00000BF207800F0010048B1A24888300068DC
:1019C00020F00300216A08439E49C1F8880020786E
:1019D00000F00200022809D19A488830006820F0FF
:1019E0000C00616A08439749C1F88800207800F02C
:1019F0000400042809D193488830006820F03000A2
:101A0000A16A08438F49C1F88800207800F00800D7
:101A1000082809D18B488830006820F0C000E16AAE
:101A200008438849C1F88800207800F02000202869
:101A300009D184488830006820F44060216B084355
:101A40008049C1F88800208800F40070B0F5007F5C
:101A500009D17C488830006820F44020616C08433C
:101A60007849C1F88800208800F48060B0F5806F64
:101A700009D174488830006820F44010A16C0843F4
:101A80007049C1F88800207800F04000402809D152
:101A90006C488830006820F44050616B0843694905
:101AA000C1F88800207800F08000802809D16548BE
:101AB0008830006820F44040A16B08436149C1F8B8
:101AC0008800208800F48070B0F5807F09D15D48DF
:101AD0008830006820F44030E16B08435949C1F870
:101AE0008800206800F48010B0F5801F09D15548A7
:101AF0009C30006820F00300216C08435149C1F874
:101B00009C00208800F40050B0F5005F1FD14D48C4
:101B10008830006820F04060216D084349498831D1
:101B20000860206DB0F1006F06D14648C06840F4EF
:101B300080104449C8600AE0206DB0F1806F06D182
:101B40000121201D02F086FB054605B1A84620684C
:101B500000F40020B0F5002F1FD13A48883000680B
:101B600020F04060616D0843364988310860606D3F
:101B7000B0F1006F06D13348C06840F4801031499D
:101B8000C8600AE0606DB0F1806F06D10121201DB0
:101B900002F060FB054605B1A846206800F48020ED
:101BA000B0F5802F1FD127488830006820F04060B2
:101BB000A16D0843234988310860A06DB0F1006F22
:101BC00006D12048C06840F480101E49C8600AE071
:101BD000A06DB0F1806F06D10121201D02F03AFB0B
:101BE000054605B1A846208800F48040B0F5804F36
:101BF00014D114488830006820F04050E16D08434B
:101C0000104988310860E06DB0F1805F06D1022193
:101C1000201D02F01FFB054605B1A846206800F410
:101C20008030B0F5803F09D106488830006820F048
:101C30000040216E08430349C1F888004046BDE8D2
:101C4000F8830000001002400070004070B50446A8
:101C50000D4600267048006800F00700A8420ED22A
:101C60006D48006820F0070028436B49086008466B
:101C7000006800F00700A84201D0012070BD207864
:101C800000F00100002879D06068032806D163487D
:101C9000006800F00070D8B90120EFE76068022802
:101CA00006D15E48006800F4003088B90120E5E7FD
:101CB000606830B95948006800F0020040B901205E
:101CC000DCE75648006800F4806008B90120D5E7D9
:101CD0005248806820F00300616808434F498860DB
:101CE000FFF784FC06466068032810D108E0FFF780
:101CF0007DFC801B41F28831884201D90320BDE779
:101D00004648806800F00C000C28F0D136E060688E
:101D1000022810D108E0FFF769FC801B41F28831EE
:101D2000884201D90320A9E73C48806800F00C00F4
:101D30000828F0D122E0606880B908E0FFF756FC7F
:101D4000801B41F28831884201D9032096E733484D
:101D5000806800F00C000028F0D10FE008E0FFF7E9
:101D600045FC801B41F28831884201D9032085E778
:101D70002A48806800F00C000428F0D1207800F098
:101D80000200022807D12548806820F0F000A168F1
:101D90000843224988602048006800F00700A842F4
:101DA0000ED91D48006820F0070028431A49086032
:101DB0000846006800F00700A84201D001205DE756
:101DC000207800F00400042807D11448806820F42B
:101DD000E060E168084311498860207800F008005D
:101DE000082808D10D48806820F46050216940EA35
:101DF000C1000A49886000F03DF808498968C1F3CC
:101E00000311074A515CC840064908600F20FFF7DC
:101E100007FC002032E700000020024000100240D2
:101E20003C7400086400002001480068704700000E
:101E30006400002000B5FFF7F7FF04498968C1F38B
:101E40000221034A515CC84000BD0000001002405E
:101E50004C74000800B5FFF7E7FF04498968C1F337
:101E6000C221034A515CC84000BD0000001002407E
:101E70004C740008F0B50021002300240225022242
:101E800000203B4EB66806F00C065EB1384EB668D0
:101E900006F00C060C2E1ED1354EF66806F0030631
:101EA000012E18D1324E366806F008062EB9304E93
:101EB00094363668C6F3032103E02D4E3668C6F328
:101EC00003112C4E56F82110294EB66806F00C0668
:101ED00086B908460EE0264EB66806F00C06042EBB
:101EE00001D1254806E0224EB66806F00C06082E01
:101EF00000D122481E4EB66806F00C060C2E36D1D4
:101F00001B4EF66806F00304194EF668C6F3021677
:101F1000721C012C19D0022C02D0032C14D109E020
:101F2000154EB6FBF2F6124FFF68C7F3062706FB05
:101F300007F313E0114EB6FBF2F60D4FFF68C7F33F
:101F4000062706FB07F309E000BFB1FBF2F6084FD6
:101F5000FF68C7F3062706FB07F300BF00BF044E68
:101F6000F668C6F34166761C7500B3FBF5F0F0BD6C
:101F700000100240547400080024F40000127A009B
:101F8000F8B504460025207800F0100010286ED126
:101F9000F848806800F00C00002869D1F548006816
:101FA00000F0020018B1A06908B90120F8BDF1489D
:101FB000216A006800F0080020B1EE48006800F0D7
:101FC000F00005E0EB489430006800F47060000910
:101FD00081421FD9206A02F003FA08B10120E5E727
:101FE00000BFE448006840F00800E2490860084685
:101FF000006820F0F000216A0843DE49086000BF55
:102000000846406820F47F40E16940EA0120D94950
:1020100048601EE000BFD748006840F00800D5497E
:1020200008600846006820F0F000216A0843D149A2
:10203000086000BF0846406820F47F40E16940EA3C
:102040000120CC494860206A02F0CAF908B1012099
:10205000ACE7FFF70FFFC7498968C1F30311C64A10
:10206000515CC840C54908600F20FFF7D9FA4AE023
:10207000A06980B3BF48006840F00100BD49086016
:10208000FFF7B4FA054606E0FFF7B0FA401B022856
:1020900001D903208AE7B748006800F00200002851
:1020A000F2D000BFB348006840F00800B1490860B2
:1020B0000846006820F0F000216A0843AD49086036
:1020C00000BF0846406820F47F40E16940EA0120F3
:1020D000A849486017E0FFE7A648006820F0010023
:1020E000A4490860FFF782FA054606E0FFF77EFA8A
:1020F000401B022801D9032058E79E48006800F0E1
:1021000002000028F2D1207800F00100002868D0F9
:102110009848806800F00C0008280BD0954880682B
:1021200000F00C000C280ED19248C06800F00300AB
:10213000032808D18F48006800F4003088B3606835
:1021400078BB012032E700BF6068B0F5803F06D160
:102150008848006840F48030864908601AE060686A
:10216000B0F5A02F0BD18348006840F4802081494E
:1021700008600846006840F4803008600AE07D4846
:10218000006820F480307B4908600846006820F42D
:102190008020086000BF606890B1FFF727FA05460D
:1021A00007E01EE0FFF722FA401B642801D9032054
:1021B000FCE67048006800F400300028F2D010E01F
:1021C000FFF714FA054606E0FFF710FA401B6428F3
:1021D00001D90320EAE66748006800F400300028CF
:1021E000F2D1207800F0020002285ED161488068B8
:1021F00000F00C0004280BD05E48806800F00C0052
:102200000C2818D15B48C06800F00300022812D1E6
:102210005848006800F4806018B1E06808B90120EF
:10222000C4E65448406820F0FE40217C40EA01604A
:102230005049486039E0E06800B34E48006840F417
:1022400080704C490860FFF7D1F9054606E0FFF7BA
:10225000CDF9401B022801D90320A7E645480068B4
:1022600000F480600028F2D04248406820F0FE4030
:10227000217C40EA01603F49486016E03D48006823
:1022800020F480703B490860FFF7B0F9054606E08E
:10229000FFF7ACF9401B022801D9032086E6354838
:1022A000006800F480600028F2D1207800F0080077
:1022B000082836D16069D0B12E489430006840F0CB
:1022C00001002C49C1F89400FFF790F9054606E09B
:1022D000FFF78CF9401B022801D9032066E6254848
:1022E0009430006800F002000028F1D019E0214885
:1022F0009430006820F001001E49C1F89400FFF7F7
:1023000075F9054606E0FFF771F9401B022801D96F
:1023100003204BE617489430006800F002000028C4
:10232000F1D1207800F0040004286ED10026114875
:10233000806D00F0805070B900BF0E48806D40F095
:1023400080500C4988650846806D00F080500090F0
:1023500000BF00BF01260A48006800F48070F0B991
:102360000748006840F4807005490860FFF73EF9AF
:1023700005460EE0001002403C7400086400002096
:1023800000700040FFF732F9401B022801D90320FA
:102390000CE69D48006800F480700028F2D000BF71
:1023A000A068012808D19948006840F001009749C9
:1023B0009039C1F8900021E0A06805280FD193481A
:1023C000006840F0040091499039C1F89000084637
:1023D000D0F8900040F00100C1F890000EE08B486A
:1023E000006820F0010089499039C1F89000084642
:1023F000D0F8900020F00400C1F8900000BFA06861
:10240000A0B1FFF7F3F8054609E02DE0FFF7EEF87D
:10241000401B41F28831884201D90320C6E57B4840
:10242000006800F002000028F0D012E0FFF7DEF8AC
:10243000054608E0FFF7DAF8401B41F28831884290
:1024400001D90320B2E57148006800F002000028BD
:10245000F0D1012E07D16D489038806D20F080506A
:102460006A499039886500BF207800F02000202854
:1024700038D1606AD8B165480830006840F0010082
:1024800062499039C1F89800FFF7B0F8054606E0B8
:10249000FFF7ACF8401B022801D9032086E55B4812
:1024A0000830006800F002000028F1D01AE0574818
:1024B0000830006820F0010054499039C1F89800B4
:1024C000FFF794F8054606E0FFF790F8401B022856
:1024D00001D903206AE54D480830006800F0020089
:1024E0000028F1D1A06AE8B348489038806800F02D
:1024F0000C000C2874D0A06A022853D143489038AD
:10250000006820F08070414990390860FFF76EF84C
:10251000054606E0FFF76AF8401B022801D90320B0
:1025200044E53A489038006800F000700028F1D186
:10253000206B401E0101606B41EA0020E16A084304
:10254000A18F0122C2EB510140EA41514020005DC0
:10255000C2EB500041EA40613820005D41EAC060B2
:102560002A4900E04EE09039C8600846006840F013
:10257000807008600846C06840F08070C860FFF74F
:1025800035F8054606E0FFF731F8401B022801D96F
:1025900003200BE51D489038006800F0007000280B
:1025A000F1D02FE019489038006820F0807017496A
:1025B000903908600846006800F0006020B90846BD
:1025C000C06820F00300C86010489038C068104907
:1025D00008400E499039C860FFF708F8054607E043
:1025E0000EE0FFF703F8401B022801D90320DDE4C9
:1025F00006489038006800F000700028F1D101E032
:102600000120D3E40020D1E400700040901002408B
:10261000FFFFEEFE042808D14FF0E021096941F0E8
:1026200004014FF0E022116107E04FF0E021096959
:1026300021F004014FF0E0221161704770B50446AB
:102640002546681EB0F1807F01D301200FE0681E8F
:102650004FF0E02148610F214FF0FF3001F0E6FD1F
:1026600000204FF0E021886107200861002070BD44
:102670007047000010B504460849206888420BD115
:102680000748C07B40B901F0C3F801F0FFF9012011
:10269000034988710349087010BD0000002C0140F7
:1026A000BC1600207C00002010B50346002200BFAD
:1026B00093F83C00012801D1022010BD012083F8CD
:1026C0003C0000BF22F0FF00CC6840EA040222F484
:1026D00040708C6840EA040222F480604C6840EA52
:1026E000040222F400600C6840EA040222F48050E4
:1026F0000C6940EA040222F400504C6940EA0402EA
:1027000022F480408C6A40EA040222F400408C6A81
:1027100040EA040222F470200C8B40EA04420E4C82
:102720001868A0420ED122F470008C8C40EA04524A
:1027300022F08070CC6940EA040222F000700C6A3A
:1027400040EA04021868426400BF002083F83C009D
:1027500000BF00BFB1E70000002C014010B50346E8
:1027600000BF93F83C00012801D1022010BD0120D8
:1027700083F83C0000BF29B1102903D0202901D0E3
:1027800030290AD11868806820F070001C68A060A9
:102790001868806808431C68A0601868406840F0AA
:1027A00001001C6860601868406820F004001C6824
:1027B00060601868406810431C6860601868C068F2
:1027C00040F020001C68E06000BF002083F83C005F
:1027D00000BF00BFCAE7000030B587B004460D4611
:1027E00014B9012007B030BD94F83D0028B900208D
:1027F00084F83C00204600F059F8022084F83D009F
:10280000211D206801F0FCFEAB68296803222068C6
:1028100002F046F92068806920F00C002168886188
:102820002068806969680843216888612068406879
:1028300040F08000216848602068806820F07000C7
:10284000216888602068806840F0400021688860C6
:102850002068806814490840216888602068806882
:1028600040F00400216888600020049005907020EA
:1028700000900020069003900290E868019069465D
:10288000206801F077FF2068406820F07000216820
:1028900048602068406840F050002168486001208E
:1028A00084F83D0000209DE7F8FFFEFF704710B55B
:1028B00004462068C06840F002002168C860012218
:1028C0000021206801F0DEFE2068006840F0010071
:1028D00021680860002010BD10B504460022114692
:1028E000206801F0CFFE2068C06820F00200216857
:1028F000C86000BF2068006A41F21111084050B959
:102900002068006A8910084028B92068006820F013
:1029100001002168086000BF002010BD30B50246EC
:102920000B4600BF92F83C00012801D1022030BDC7
:10293000012082F83C0000BF10684168106884687C
:102940000D4D1068A84203D121F47001586801436D
:1029500021F070011868014324F080049868044352
:10296000106841601068846000BF002082F83C005D
:1029700000BF00BFDBE70000002C014070B504463B
:102980000D4604222946206801F08AFE2068406C2A
:1029900040F40040216848642068006840F001006D
:1029A00021680860002070BD70B504460D46002205
:1029B0002946206801F074FE00BF2068006A41F2D9
:1029C0001111084050B92068006A8910084028B9E0
:1029D0002068406C20F400402168486400BF00BFBC
:1029E0002068006A41F21111084050B92068006A5D
:1029F0008910084028B92068006820F0010021688B
:102A0000086000BF002070BD10B504460CB901205D
:102A100010BD94F83D0028B9002084F83C00204601
:102A200000F00CF8022084F83D00211D206801F020
:102A3000E7FD012084F83D000020E9E710B586B0ED
:102A4000044623492068884216D100BF2148006E01
:102A500040F400601F4908660846006E00F40060FC
:102A6000009000BF00BF002205211A20FEF741FEA2
:102A70001A20FEF731FE28E02068B0F1804F24D103
:102A800000BF1448806D40F0010012498865084677
:102A9000806D00F00100009000BF00BF0720019092
:102AA0000220029001200390032004900120059051
:102AB00001A94FF09040FEF7A5FC002205211C2043
:102AC000FEF717FE1C20FEF707FE06B010BD000043
:102AD000002C0140001002402DE9F04104460D4653
:102AE000002600BF94F83C00012802D10220BDE876
:102AF000F081012084F83C0000BF022084F83D00F2
:102B0000206886684148064026F47F462068866033
:102B1000286850283CD00CDC202861D004DC002838
:102B200054D0102866D156E030285ED0402861D1BC
:102B300042E0602836D070280ED0B0F5805F03D018
:102B4000B0F5005F56D116E0206880682F497031DB
:102B50000840216888604EE0D5E902136A68206861
:102B600001F0ACFD206886682848064046F07706EC
:102B7000206886603FE0D5E902136A68206801F0AA
:102B80009DFD2068806840F480402168886032E0C4
:102B9000EA686968206801F06DFF5021206801F043
:102BA00099FD28E0EA686968206801F0AFFF6021BC
:102BB000206801F08FFD1EE0EA686968206801F076
:102BC00059FF4021206801F085FD14E000212068B4
:102BD00001F080FD0FE01021206801F07BFD0AE08C
:102BE0002021206801F076FD05E03021206801F009
:102BF00071FD00E000BF00BF012084F83D0000BF70
:102C0000002084F83C0000BF00BF70E788FFFEFF93
:102C100000B503461868B0F1804F0FD1187F012826
:102C20000CD107480068406940F020000449096859
:102C300048611968496B88B200F0FEFC00BD0000D5
:102C4000B012002010B5044620680069C0F34000AF
:102C5000D8B12068C068C0F34000B0B16FF0020086
:102C600021680861012020772068806900F0030056
:102C700018B12046FFF7CCFF05E0204600F024F90C
:102C8000204600F024FA0020207720680069C0F375
:102C90008000D8B12068C068C0F38000B0B16FF088
:102CA000040021680861022020772068806900F410
:102CB000407018B12046FFF7ABFF05E0204600F05A
:102CC00003F9204600F003FA00202077206800690D
:102CD000C0F3C000D8B12068C068C0F3C000B0B174
:102CE0006FF0080021680861042020772068C0691F
:102CF00000F0030018B12046FFF78AFF05E02046E8
:102D000000F0E2F8204600F0E2F900202077206889
:102D10000069C0F30010D8B12068C068C0F300108B
:102D2000B0B16FF01000216808610820207720689A
:102D3000C06900F4407018B12046FFF769FF05E054
:102D4000204600F0C1F8204600F0C1F900202077AD
:102D50002068006900F0010058B12068C06800F0E8
:102D6000010030B16FF0010021680861204600F0D9
:102D7000AFF920680069C0F3C01058B12068C0687E
:102D8000C0F3C01030B16FF08000216808612046A8
:102D9000FFF76EFC20680069C0F3801058B120680E
:102DA000C068C0F3801030B16FF040002168086146
:102DB000204600F0B9F920680069C0F3401058B10E
:102DC0002068C068C0F3401030B16FF02000216867
:102DD00008612046FFF74EFC10BD000010B586B01C
:102DE00004461249206888421ED14FF46040019089
:102DF00012200290012003900320049001200590EE
:102E000001A90B48FEF7FEFA4FF4E0600190122092
:102E1000029001200390032004900120059001A955
:102E20004FF09040FEF7EEFA06B010BD002C0140C6
:102E30000004004870B504460E46154600BF94F8DD
:102E40003C00012801D1022070BD012084F83C0023
:102E500000BF022084F83D000C2D1AD005DC4DB1D6
:102E6000042D0CD0082D23D10EE0102D16D0142DDA
:102E70001ED118E03146206801F036FC19E03146D9
:102E8000206801F077FC14E03146206801F0BEFCB8
:102E90000FE03146206801F003FD0AE0314620686A
:102EA00001F032FD05E03146206801F05DFD00E0F3
:102EB00000BF00BF012084F83D0000BF002084F85F
:102EC0003C0000BF00BFBFE77047000030B50446BC
:102ED0000D4601222946206801F0D4FB0E492068E6
:102EE000884207D00D492068884203D00C492068E9
:102EF000884201D1012000E0002028B12068406C08
:102F000040F40040216848642068006840F00100F7
:102F100021680860002030BD002C014000400140C5
:102F20000044014070B504460D46164600BF94F8B3
:102F30003C00012801D1022070BD012084F83C0032
:102F400000BF022084F83D000C2E51D005DC4EB1AC
:102F5000042E1ED0082E7AD133E0102E60D0142E0D
:102F6000F9D175E02946206801F0BEFB2068806930
:102F700040F00800216888612068806920F0040022
:102F8000216888612068806929690843216888610F
:102F900077E02946206801F0EDFB2068806940F465
:102FA0000060216888612068806920F48060216861
:102FB000886120688069296940EA01202168886168
:102FC0005FE02946206801F021FC2068C06940F0DC
:102FD00008002168C8612068C06920F004002168E9
:102FE000C8612068C069296908432168C86148E050
:102FF0002946206801F054FC2068C06940F4006054
:103000002168C8612068C06920F480602168C861B7
:103010002068C069296940EA01202168C86130E060
:103020002946206801F070FC2068406D40F00800DF
:10303000216848652068406D20F0040021684865DB
:103040002068406D296908432168486519E017E048
:103050002946206801F088FC2068406D40F400603B
:10306000216848652068406D20F4806021684865CB
:103070002068406D296940EA01202168486500E028
:1030800000BF00BF012084F83D0000BF002084F88D
:103090003C0000BF00BF4FE710B504460CB901204B
:1030A00010BD94F83D0028B9002084F83C0020466B
:1030B00000F00CF8022084F83D00211D206801F08A
:1030C0009FFA012084F83D000020E9E7704770472F
:1030D000704770B504460D4600BF94F83C000128C7
:1030E00001D1022070BD012084F83C0000BF022005
:1030F00084F83D002946204601F068FC2068C0683D
:1031000020F040002168C8602068C06820F480403A
:103110002168C860012084F83D0000BF002084F8C9
:103120003C0000BF00BFDDE77047704770470000FC
:103130002DE9F04104462068C569206806682068CA
:10314000876805F00F08B8F1000F0CD105F02000DA
:1031500048B106F0200030B1206E10B12046216E3B
:103160008847BDE8F081B8F1000F7FD007F001007B
:1031700018B906F49070002878D005F0010048B125
:1031800006F4807030B1012021680862606F40F061
:103190000100606705F0020048B107F0010030B19E
:1031A000022021680862606F40F00400606705F04B
:1031B000040048B107F0010030B104202168086222
:1031C000606F40F00200606705F0080060B106F033
:1031D000200010B907F0010030B108202168086212
:1031E000606F40F008006067606F78B305F0200002
:1031F00038B106F0200020B1206E10B12046216EBB
:103200008847606F00F0080028B92068806800F0E7
:103210004000402824D1204601F050FD20688068FD
:1032200000F04000402817D12068806820F040005E
:1032300021688860E06E58B12248E16E8863E06ED4
:10324000FDF770FF10B1E06E816B88470DE00DE077
:103250002046FFF76BFF08E02046FFF767FF04E01A
:103260002046FFF763FF002060677AE705F48010CF
:1032700078B107F4800060B14FF4801021680862D3
:10328000202084F8710084F872002046FFF74DFF7B
:1032900067E705F0800040B106F0800028B1606E5D
:1032A00010B12046616E88475BE705F0400030B101
:1032B00006F0400018B1204601F012FD51E700BFB2
:1032C0004FE70000A54C000810B504460CB90120DA
:1032D00010BDA06900B100E000BF94F8710028B9EA
:1032E000002084F87000204600F02AF8242084F89A
:1032F00071002068006820F0010021680860204605
:1033000001F000FD012800D1E2E7606A10B120461B
:1033100001F012FC2068406820F490402168486069
:103320002068806820F02A00216888602068006892
:1033300040F0010021680860204601F079FCC7E7F1
:1033400010B586B0044615492068884223D100BFD5
:103350001348006E40F48040114908660846006E2C
:1033600000F48040009000BF00BFC0200190022008
:10337000029001200390032004900720059001A9EA
:103380000848FEF73FF8002205212520FEF7B1F995
:103390002520FEF7A1F906B010BD0000003801405D
:1033A00000100240000400482DE9F84304460D4691
:1033B00016461F464FF0000994F87100202855D199
:1033C00005B116B90120BDE8F88300BF94F870007C
:1033D000012801D10220F6E7012084F8700000BF27
:1033E00000206067212084F87100FEF7FFF8814615
:1033F000A4F85060A4F8526021E04B4600228021DE
:103400002046009701F0A5FE08B10320DBE7A06885
:10341000B0F5805F0AD1206940B9A846B8F800002D
:10342000C0F3080021680885AD1C03E015F8010B06
:1034300021680885B4F85200401EA4F85200B4F880
:1034400052000028D9D14B46002240212046009747
:1034500001F07FFE08B10320B5E7202084F8710059
:1034600000BF002084F8700000BFACE70220AAE78C
:10347000704700BFFEE700008168024A1140491C06
:1034800081607047C0FFFF7F0146886800F0E070F0
:103490007047024602F1600000EB8103186800F0FB
:1034A000F840704701468868C0F3007070470146D5
:1034B0008868C0F3800070478168024A1140091D86
:1034C00081607047C0FFFF7F70B501F000744FF05E
:1034D000007595FAA5F5B5FA85F5EC4000F11405EF
:1034E00005EB840301F0F8754FF0F87696FAA6F62E
:1034F000B6FA86F6F5400726AE401C68B44301F0E4
:10350000F8754FF0F87696FAA6F6B6FA86F6F54014
:1035100002FA05F52C431C6070BD826822F0E0724F
:103520000A438260704710B500F1600404EB810328
:103530001C6824F0004414431C6010BD426922F052
:1035400000420A434261704710B5044600F094FB04
:1035500008222021002000F065FB08222021042001
:1035600000F060FB08222021104600F05BFB1448AD
:103570000068406940F0200011490968486100F086
:1035800021F8204603F0FCF900F076FB0022202110
:10359000104600F047FB00222021042000F042FBEF
:1035A00000222021082000F03DFB0548006840690A
:1035B00040F0200002490968486100F003F810BD9E
:1035C000B012002010B500224FF480710848FEF7B9
:1035D00007F8002280210648FEF702F8322002F0A8
:1035E0006FFC012280210248FDF7FAFF10BD0000A8
:1035F000000800480020014948707047BC160020B0
:103600000A480088401C09490880084600880A28A2
:103610000ADB002008800648007810B90020054920
:103620008871002002490870704700009000002057
:103630007C000020BC1600200849094A127821F8B5
:10364000120007490978491C054A1170114609788A
:10365000302901DD0021117070470000E0160020C4
:103660008800002010B510480078062804D10120F9
:1036700002F05EF80D490860012002F059F8044696
:103680000A480068844209D908480068201A00EBFB
:103690008000C0F34F000449088102E00020024985
:1036A00008810148008910BDBC1600208C00002054
:1036B0002DE9F04100260027B04600250024012115
:1036C0004FF09040FDF784FF064602214FF09040F6
:1036D000FDF77EFF074604214FF09040FDF778FF8D
:1036E0008046B00040EA470040EA0800C5B20A48F8
:1036F000807B10B90948445D01E00948445D14B17C
:103700000548047405E0082000F084FA0020BDE8B4
:10371000F0812046FBE70000BC160020AC740008D6
:10372000B474000810B500244FF400710B48FDF785
:103730004FFF48B94FF400710848FDF749FF0849A9
:103740000978884200D101244FF400710348FDF745
:103750003FFF03490870204610BD000000080048E4
:103760009200002000210B48807908B900207047A2
:10377000002205E0084830F812000144501CC2B293
:10378000302AF7DB09B90020F1E70448B0FBF1F17A
:103790000846ECE7BC160020E016002000983A002E
:1037A0000148407870470000BC16002000B5FFF7C4
:1037B000D9FFC0EB001020F040400621B0FBF1F033
:1037C000024988800846808800BD0000BC160020A1
:1037D00010B5FFF747FF00F009F8FFF7E7FF10BD4E
:1037E0000148007870470000BC16002010B500208A
:1037F00001F09EFF0446642060434FF47A71B0FBF1
:10380000F1F0024948810846408910BDBC160020ED
:1038100070B50025FFF74CFF04462C4800780128BE
:103820000BD02A480078022807D0284800780328BF
:1038300003D026480078062805D1002024490870C6
:10384000FF202449087023480078FF2802D121482E
:10385000047070BD1D48807B70B9012C06D01D48D6
:103860000078401C844215D0012513E019480078E7
:1038700006280FD001250DE0062C06D0154800784B
:10388000401EA04206D0012504E01248007801281D
:1038900000D0012545B10E480078401C0C49087045
:1038A000FF200C49087002E0002009490870084810
:1038B0000078052802DA0748047005E00020044972
:1038C0000870012000F0A6F900BFC2E7BC16002076
:1038D0008A0000208900002010B5FFF791FEFFF755
:1038E00077FFFFF71FFF012802D1022000F092F9B5
:1038F0005848407890B15748007807280ED055486E
:10390000007805280AD053480078062806D0514888
:103910000078082802D007204E4908704D480078EA
:103920000A287DD2DFE800F08F06294C586205682E
:10393000838E8CE0FFF7BCFE4648407818B1072024
:103940004449087018E00020424948820520FFF7EA
:10395000FBFD00F0E9F84048FEF7BEFF3F48006875
:10396000406940F020003D4909684861022039491A
:103970000870642000F040F969E000F00FFAF0B13F
:1039800005213C2000F0ECF8C8B100203149488204
:103990003148FEF78CFFFFF78BFE2E49087C00F0C4
:1039A00091F92E480068406940F020002B490968D1
:1039B0004861032027490870C82000F01DF946E03F
:1039C00001213C2000F0CCF828B100F0E7F910B15B
:1039D0000420204908703AE01E48807928B9072061
:1039E0001C490870042000F015F930E000F0DAF806
:1039F0000620184908702AE016488078401C1549AE
:103A0000887000F039F91348807805280BDA1148DE
:103A1000C07B40B9C82000F0EFF808200D4900E055
:103A200011E0087002E005200A4908700FE000F07C
:103A3000B5F930B1012007490870FFF7C3FDFFF762
:103A4000D9FD04E003E005200249087000BF00BF73
:103A500010BD0000BC160020F0120020B0120020A3
:103A600010B500F009F900F09DF800224FF6FF7143
:103A70000448FEF773FE0448FEF72EFFFFF7A2FD91
:103A800010BD0000B0120020F012002010B50B484D
:103A9000807B20B90948007C401C44B203E0074801
:103AA000007C401E44B2062C00DD0124012C00DA0B
:103AB0000624E0B200F006F910BD0000BC1600209C
:103AC00010B516480078062826D11548FEF704FFE1
:103AD000FFF778FDFFF78EFD01201049C873052020
:103AE000FFF732FD00221021104600F09BF8002263
:103AF0001021042000F096F800221021082000F088
:103B000091F809200549087006480068406940F0AE
:103B1000200004490968486110BD0000BC1600205F
:103B2000F0120020B012002010B50C48807B20B9A4
:103B30000A48007C401E44B203E00848007C401C58
:103B400044B2062C01DDA01F44B2012C01DAA01DF5
:103B500044B2E0B200F0B6F810BD0000BC16002080
:103B600002460E48408A904215DA0C48408A0844C2
:103B70000A4B58821846408A094B1B68586307480D
:103B8000408A074B1B6898630448408A044B1B68B3
:103B9000D863002070470120FCE70000BC1600201D
:103BA000B012002010B51148FEF796FE0022202129
:103BB000104600F037F800222021042000F032F8EF
:103BC00000222021082000F02DF8094800684069F3
:103BD00040F02000064909684861002005498880B6
:103BE0004882062008700020487310BDF0120020A3
:103BF000B0120020BC16002010B504460348046033
:103C0000FDF7F4FC0249086010BD000080000020B0
:103C100084000020024949780143014A51707047ED
:103C2000BC16002070B588B004460D4616461048F4
:103C3000408A02900220039004960020059006908E
:103C400007900195224601A90A48FFF7F3F821469B
:103C50000848FFF73BF9602D04D121460548FEF7DF
:103C6000A3FE03E021460348FEF788FE08B070BDBE
:103C7000BC160020B012002010B50122110202482B
:103C8000FDF7AEFC10BD00000008004810B504466A
:103C90000848007806280BD1FFF794FCFFF7AAFC30
:103CA0000448847301200349087000208870C87399
:103CB00010BD0000BC1600200520014908707047A7
:103CC000BC16002010B50446072C65D2DFE804F0CE
:103CD0006404142434445400082260210020FFF7B7
:103CE000A1FF082220210420FFF79CFF00222021B1
:103CF0000820FFF797FF4FE0002220211046FFF732
:103D000091FF082220210420FFF78CFF0822602168
:103D10001046FFF787FF3FE0082220210020FFF731
:103D200081FF002220210420FFF77CFF0822602170
:103D30001046FFF777FF2FE0082220210020FFF731
:103D400071FF082260210420FFF76CFF0022202170
:103D50000820FFF767FF1FE0002220211046FFF731
:103D600061FF082260210420FFF75CFF0822202168
:103D70001046FFF757FF0FE0082260210020FFF7F1
:103D800051FF002220210420FFF74CFF08222021B0
:103D90001046FFF747FF00BF00BF10BD10B50B482E
:103DA0000068401C78B10948006840B1FDF71EFC6E
:103DB00007490968401A05490968884201D9012064
:103DC00010BD0020FCE70120FAE700008000002081
:103DD0008400002000B587B02B482C4908604FF4C0
:103DE00020104860002129488160C16001210161E3
:103DF00004214161002181610121C161032101622E
:103E000000214162012181620021C162016301211F
:103E1000416300218163C163FCF7CCFF18B15821D5
:103E20001BA001F0D9F91E48019001200290072043
:103E300003907F200490042005900020069001A9A3
:103E40001248FCF711FD18B1652111A001F0C4F969
:103E5000144801900220029001A90C48FCF704FDCF
:103E600018B16E210AA001F0B7F90F4801900320A4
:103E7000029001A90548FCF7F7FC18B1772104A0CE
:103E800001F0AAF907B000BD000004508411002021
:103E90002E2E2F5372632F6164632E630000000087
:103EA00002003004040060080100008008B500BF73
:103EB0000A48806C40F00100084988640846806C1C
:103EC00000F00100009000BF00BF002205210B2080
:103ED000FDF70FFC0B20FDF7FFFB08BD00100240B3
:103EE00000B58BB014220C4906A8FCF715FA002186
:103EF00006A801F0FEFF09490860142206491431A2
:103F000001A8FCF709FA002101A801F0F2FF044919
:103F100008600BB000BD0000847400086800002039
:103F20006C00002000B587B000BF2C48C06C40F08A
:103F300080002A49C8640846C06C00F080000190E7
:103F400000BF00BF00BF0846C06C40F00400C8645A
:103F50000846C06C00F00400019000BF00BF00BF25
:103F60000846C06C40F00100C8640846C06C00F010
:103F70000100019000BF00BF00BF0846C06C40F0C8
:103F80000200C8640846C06C00F00200019000BF47
:103F900000BF00224FF4C0711148FDF721FB4FF420
:103FA000C07002901120039001200490032005901E
:103FB00002A90B48FDF726FA4FF40070029000208A
:103FC00003900120049002A90548FDF71BFA012285
:103FD00080210348FDF704FB07B000BD001002403C
:103FE0000008004800B59FB04848494908603F2094
:103FF00048600021464881603F21C1600021016185
:1040000041618161FEF700FD18B1502141A001F02E
:10401000E3F84FF480501B901BA93D48FEF75CFD70
:1040200018B156213BA001F0D7F83948FFF734F812
:1040300018B15B2137A001F0CFF8002016901020B6
:10404000179016A93248FFF744F818B1622131A041
:1040500001F0C2F8002013901490159013A92C4879
:10406000FEF75CFC18B16A212AA001F0B5F86020C7
:104070000C900A200D9000200E900F90109011903F
:10408000129000220CA92248FEF74CFF18B17621AD
:1040900020A001F0A1F804220CA91D48FEF742FF60
:1040A00018B17B211BA001F097F808220CA9184831
:1040B000FEF738FF18B1802116A001F08DF84FF4FB
:1040C00000600190401002900020039007200490AF
:1040D000002005904FF400500690002007900890B3
:1040E0004FF00070099000200A904FF480400B9030
:1040F00001A90748FEF7D8FA18B1902105A001F0F0
:104100006BF80348FEF76AFE1FB000BD002C0140AB
:10411000B01200202E2E2F5372632F74696D2E6300
:104120000000000000B58BB04FF080401F490860D0
:1041300040F2E730486000211C4881604FF6FF7173
:10414000C160002101618161FEF75EFC18B1A5210B
:1041500017A001F041F84FF48050079007A91348C9
:10416000FEF7BAFC18B1AB2111A001F035F8002020
:10417000039004900F2005900020069003A90B489F
:10418000FEF72AFB18B1B42109A001F025F8502050
:1041900000900020029069460448FEF7BFFB18B16A
:1041A000BB2103A001F018F80BB000BDF0120020F5
:1041B0002E2E2F5372632F74696D2E630000000042
:1041C00010B50E480E4908604FF4E13048600021F8
:1041D0000B488160C16001610C2141610021816156
:1041E000C16101620020064948620846FFF76CF889
:1041F00018B14E2103A000F0EFFF10BD00380140C0
:10420000381200202E2E2F5372632F757361727433
:104210002E63000000BFFEE7704700000248006800
:10422000C0F30220704700000CED00E010B500283C
:1042300007DA0A07140E054A00F00F031B1FD454B7
:1042400003E00A07130E024A135410BD18ED00E0F4
:1042500000E400E02DE9F04104460E460027002569
:104260005B48C06800F0030090B15948C06800F096
:1042700003002168884209D1206838B15448C068D9
:10428000C0F30210401C6168884233D0012531E040
:104290002068012804D0022809D003281AD10DE093
:1042A0004B48006800F0020000B9012514E04848BE
:1042B000006800F4806000B901250DE04448006802
:1042C00000F4003028B94248006800F4802000B9AA
:1042D000012501E0012500BF00BF5DB9D4E9001050
:1042E000401E41EA00103A49C96821F073010843B1
:1042F0003749C860002D67D13548006820F08060DC
:1043000033490860FDF772F9074606E0FDF76EF9DC
:10431000C01B022801D9032505E02D48006800F0E4
:1043200000600028F2D100BFC5BB66B9A0680002DA
:10433000217B40EAC16026490969264A11400843A9
:104340002349086120E0012E0FD1A0680002218AD4
:104350000122C2EB510140EA41501D4909691E4A40
:10436000114008431A4908610EE0A0680002217D4F
:104370000122C2EB510140EA416015490969174A1F
:1043800011400843124908611148006840F08060FC
:104390000F490860FDF72AF9074607E014E0FDF72A
:1043A00025F9C01B022801D9032505E0084800684B
:1043B00000F000600028F2D000BF2DB90448006969
:1043C000A1690843024908612846BDE8F081000060
:1043D00000100240FF80FF07FF809FFFFF80FFF972
:1043E000F8B50446002600252348806D00F0805073
:1043F00018B1FDF719FA064616E000BF1E48806D99
:1044000040F080501C4988650846806D00F080505F
:10441000009000BF00BFFDF707FA06461648806D02
:1044200020F0805014498865B6F5007F07D1802CB4
:1044300010D9A02C01D902250CE001250AE0802C1E
:1044400001D9032506E0802C01D1022502E0702C61
:1044500000D101250948006820F0070028430749DA
:1044600008600846006800F00700A84201D001205B
:10447000F8BD0020FCE700000010024000200240D0
:1044800001F070F9642001F01BFD00BF4FF47A7059
:1044900001F016FDFAE7FFF7E3FA00BFFFF71CFA99
:1044A0000A2001F00DFDF9E710B5FDF7A5F801F0C0
:1044B00018FD10BD10B5B0B001201F900004209071
:1044C0000220299003211FA8C16201210163142148
:1044D0004163072181630221C1630164FDF750FD3F
:1044E00018B1A12126A000F077FE0F201A9003201A
:1044F0001B9000201C901D901E9004211AA8FDF70F
:10450000A5FB18B1AF211EA000F066FE44F2010029
:104510000090002008904FF08050179003200190E9
:1045200001210291082103910721049102210591A3
:104530000691C90507916846FDF77EF918B1BE21BD
:104540000FA000F049FE4FF40070FDF727F918B1F5
:10455000C5210BA000F040FEFDF766FC4FF47A7118
:10456000B0FBF1F42046FEF769F80420FEF752F89C
:1045700000220F21501EFDF7BCF830B010BD000026
:104580002E2E2F5372632F6D61696E2E6300000013
:104590001048006840F470000E4908600E4800683A
:1045A00040F001000C49086000208860084600685F
:1045B0000A490840084908608814C860084600682D
:1045C00020F48020086000208861C80301498039F8
:1045D0000860704788ED00E000100240FFFFF6EA37
:1045E00010B50248FEF72EFB10BD0000B0120020EF
:1045F00010B50248FEF726FB10BD0000F0120020A7
:10460000002202681B4B984205D0B0F1804F02D0C7
:10461000194B984203D122F070024B681A43154B94
:1046200098420BD0B0F1804F08D0134B984205D080
:10463000124B984202D0124B984203D122F440729E
:10464000CB681A4322F080024B691A4302608B68E0
:10465000C3620B688362074B984205D0074B9842B0
:1046600002D0074B984201D10B69036301234361D8
:1046700070470000002C0140000400400040014051
:104680000044014030B50023012404FA01F3046A18
:104690009C430462046A02FA01F52C43046230BDB3
:1046A00030B50023042404FA01F3046A9C43046235
:1046B000046A02FA01F52C43046230BD30B50C46A1
:1046C0000021816821F47F4142EA032525432943E3
:1046D000816030BD0A460021816821F0700142F0FE
:1046E000070319438160704730B50024002200237E
:1046F000056A25F001050562026A43688469194D5F
:104700002C4024F003040D682C4322F002028D6833
:104710002A43154DA84200D107E0144DA84200D10C
:1047200003E0134DA84206D100BF22F00802CD6875
:104730002A4322F004020C4DA84205D00B4DA8429A
:1047400002D00B4DA84207D123F4807323F40073E9
:104750004D692B438D692B43436084614D684563EC
:10476000026230BD8FFFFEFF002C0140004001407F
:104770000044014030B5002400220023056A25F0E2
:1047800010050562026A436884691C4D2C4024F4BC
:1047900040740D6844EA052422F020028D6842EA44
:1047A0000512174DA84200D107E0164DA84200D1CE
:1047B00000BF154DA84207D106E022F08002CD6867
:1047C00042EA051222F040020D4DA84205D00D4DDF
:1047D000A84202D00C4DA84209D123F4806323F4EF
:1047E00000634D6943EA85038D6943EA85034360AD
:1047F00084614D688563026230BD0000FF8FFFFE5B
:10480000002C0140004001400044014030B500242C
:1048100000220023056A25F480750562026A436858
:10482000C4691B4D2C4024F003040D682C4322F472
:1048300000728D6842EA0522164DA84200D107E0B9
:10484000154DA84200D100BF144DA84207D106E083
:1048500022F40062CD6842EA052222F480620D4D06
:10486000A84205D00C4DA84202D00C4DA84209D157
:1048700023F4805323F400534D6943EA05138D69F3
:1048800043EA05134360C4614D68C563026230BDED
:104890008FFFFEFF002C014000400140004401401A
:1048A00030B5002200230024056A25F480550562F6
:1048B000036A4468C269104D2A4022F440720D68B0
:1048C00042EA052223F400538D6843EA05330B4D79
:1048D000A84205D00A4DA84202D00A4DA84204D1F0
:1048E00024F480444D6944EA85144460C2614D68F3
:1048F0000564036230BD0000FF8FFFFE002C014005
:10490000004001400044014030B500240022002353
:10491000056A25F480350562026A4368446D0E4DD0
:104920002C400D682C4322F400320D8942EA0542E6
:104930000A4DA84205D00A4DA84202D0094DA8420E
:1049400004D123F480334D6943EA05234360446571
:104950004D688565026230BD8FFFFEFF002C01406F
:10496000004001400044014030B5002400220023F3
:10497000056A25F480150562026A4368446D0F4D8F
:104980002C400D6844EA052422F400120D8942EA05
:1049900005520B4DA84205D00A4DA84202D00A4D3F
:1049A000A84204D123F480234D6943EA8523436060
:1049B00044654D68C565026230BD0000FF8FFFFE93
:1049C000002C014000400140004401402DE9F0412D
:1049D00004460D4600260027B0462068866826F06B
:1049E0007006686806432248064028680643206827
:1049F0008660686800F00F01002935D10011082891
:104A000032D2DFE800F02D2E2F300B212704D5E91C
:104A10000313AA682068FFF751FE26E02068D0F84B
:104A200020802068006A20F0010021680862206868
:104A3000876927F0F007286947EA0017206887612F
:104A40002068C0F8208010E02A69A968206800F07A
:104A500011F80AE02A69A968206800F057F804E014
:104A600003E002E001E000E000BF00BFBDE8F0812C
:104A7000F8FFFEFF30B50B46144600210022026A03
:104A8000056A25F001050562816921F0F00141EA1E
:104A9000041122F00A021A438161026230BD000053
:104AA00070B50C46154600210022066A26F0010664
:104AB00006628169026A124EB04208D0B0F1804F9E
:104AC00005D0104EB04202D00F4EB04201D10126A7
:104AD00000E000261EB121F00301294301E041F06E
:104AE000010121F0F001F02606EA0316314322F01D
:104AF0000A0204F00A0632438161026270BD0000BE
:104B0000002C0140000400400040014030B50B463D
:104B1000144600210022056A25F01005056281690E
:104B2000026A21F4704141EA043122F0A00242EA13
:104B300003128161026230BD90F8241001F001017E
:104B400039B10168496821F40031826A1143026871
:104B5000516090F8241001F00201022907D1016888
:104B6000496821F48031C26A11430268516090F8AB
:104B7000241001F00401042907D10168496821F4D7
:104B80008021026B11430268516090F8241001F0FB
:104B90000801082907D10168496821F40041426BE6
:104BA00011430268516090F8241001F0100110299F
:104BB00007D10168896821F48051826B1143026832
:104BC000916090F8241001F02001202907D101689C
:104BD000896821F40051C26B11430268916090F81A
:104BE000241001F04001402913D10168496821F4E3
:104BF0008011026C114302685160016CB1F5801F95
:104C000007D10168496821F4C001426C1143026870
:104C1000516090F8241001F08001802907D10168CB
:104C2000496821F40021826C114302685160704789
:104C300038B50446002500206067FCF7D7FC054620
:104C40002068006800F0080008280CD16FF07E4052
:104C50002B4600224FF400110090204600F079FA14
:104C600008B1032038BD2068006800F00400042863
:104C70000CD16FF07E402B4600224FF48001009053
:104C8000204600F066FA08B10320EBE7202084F804
:104C9000710084F8720000BF002084F8700000BF2B
:104CA00000BFDFE770B50546AC6A0020A4F85A00E3
:104CB000A4F852002046FEF739FA70BD0168096871
:104CC00021F49071026811600168896821F0010186
:104CD00002689160202180F87210002101667047FF
:104CE00010B504462068006820F040002168086084
:104CF000202084F87100002060662046FEF7B8FB93
:104D000010BD00002DE9F84F04464FF000091026B1
:104D10004FF0000B0025002000908246FD492068DE
:104D2000884200D100E000BF2169A06808436169A2
:104D30000843E16940EA010920680068F649084033
:104D400040EA0900216808602068406820F440506B
:104D5000E168084321684860D4F81890ED4920685C
:104D6000884202D0206A40EA09092068806820F45D
:104D7000306040EA09002168886000BFE749206888
:104D8000884216D1E648006800F0030030B10128DF
:104D900008D0022804D0032808D105E0012607E046
:104DA000022605E0042603E0082601E0102600BFE5
:104DB0006EE0DC492068884216D1D948006800F0CE
:104DC0000C0030B1042808D0082804D00C2808D1E1
:104DD00005E0002607E0022605E0042603E0082699
:104DE00001E0102600BF53E0CF492068884216D169
:104DF000CB48006800F0300030B1102808D02028DF
:104E000004D0302808D105E0002607E0022605E09E
:104E1000042603E0082601E0102600BF38E0C3495D
:104E20002068884216D1BE48006800F0C00030B14A
:104E3000402808D0802804D0C02808D105E00026EA
:104E400007E0022605E0042603E0082601E010261C
:104E500000BF1DE0AF492068884219D1B048006802
:104E600000F4406048B1B0F5806F0AD0B0F5006F33
:104E700005D0B0F5406F08D105E0002607E0022616
:104E800005E0042603E0082601E0102600BF00BF6D
:104E900000BFA0492068884272D1042E10D003DCE4
:104EA0003EB1022E13D108E0082E0DD0102E0ED1E7
:104EB0000EE0FCF7BFFF82460DE0DFF874A20AE0C7
:104EC000FCF7D8FF824606E04FF4004A03E000BF3B
:104ED0000120009000BF00BFBAF1000F0AD0606847
:104EE00000EB4000504503D860680003504502D2F3
:104EF0000120009024E1042E2ED003DC3EB1022ECE
:104F000051D118E0082E3CD0102E4CD14CE0FCF7CB
:104F100091FF4FF48071A0FB0131606840081F18B9
:104F200041F10001D4F804C0624600233846FBF783
:104F3000BBF905463BE0D4F804C04FEA5C00002111
:104F40007C4BC71841EB010862460B463846414688
:104F5000FBF7AAF905462AE0FCF78CFF4FF48071B5
:104F6000A0FB0130616849085F1840F10001D4F8E6
:104F700004C0624600233846FBF796F9054616E062
:104F800022E0D4F804C04FEA5C0000214FF4000393
:104F9000C71841EB010862460B4638464146FBF70D
:104FA00083F9054603E000BF0120009000BF00BF69
:104FB000B5F5407F05D3B5F5801F02D22068C560E6
:104FC000BEE001200090BBE0E069B0F5004F57D192
:104FD000042E28D005DC4EB1012E11D0022E36D180
:104FE00018E0082E29D0102E31D131E0FCF722FF35
:104FF0004000616800EB5100B0FBF1F085B22AE09F
:10500000FCF728FF4000616800EB5100B0FBF1F0B5
:1050100085B220E04849606801EB50006168B0FB50
:10502000F1F085B217E0FCF725FF4000616800EB66
:105030005100B0FBF1F085B20DE04FF480316068B3
:1050400001EB50006168B0FBF1F085B203E000BFF6
:105050000120009000BF00BF102D0ED3B5F5803F9A
:105060000BD24FF6F07005EA000BC5F342004BEA95
:10507000000B2068C0F80CB062E0012000905FE0F7
:10508000042E26D005DC4EB1012E10D0022E33D1D5
:1050900016E0082E26D0102E2ED12EE0FCF7CAFEE8
:1050A000616800EB5100B0FBF1F085B228E0FCF73D
:1050B000D1FE616800EB5100B0FBF1F085B21FE05A
:1050C0001B49606801EB50006168B0FBF1F085B2EC
:1050D00016E0FCF7CFFE616800EB5100B0FBF1F089
:1050E00085B20DE04FF40041606801EB500061684B
:1050F000B0FBF1F085B203E000BF0120009000BFDB
:1051000000BF102D1AD3B5F5803F17D22068C560B7
:1051100016E0000000800040F369FFEF0038014016
:10512000881002400044004000480040004C00400D
:105130000024F400000024F40048E801012000905D
:10514000002020666066009800F000B818BCBDE83A
:10515000E08F2DE9F04104460D4617469846069E1D
:1051600021E0701CF8B12EB1FCF740FAA0EB08006A
:10517000B04218D92068006820F4D0702168086017
:105180002068806820F0010021688860202084F871
:10519000710084F8720000BF002084F8700000BF26
:1051A0000320BDE8F0812068C0692840A84201D1F1
:1051B000012000E00020B842D3D00020F1E7000039
:1051C00010B50348FBF7A8FA0148FDF7B1FF10BD81
:1051D0003812002000BFFEE700BFFEE70FB41CB589
:1051E0000246002007AC00290BD0491ECDE9002162
:1051F000054B6A462146069800F02CF8009A0021DB
:1052000011701CBC5DF814FBBD5600080FB4084BB0
:1052100010B504A902AA039800F01CF8044602A9DC
:10522000002000F056FA204610BC5DF814FB000088
:10523000D356000802E008C8121F08C1002AFAD19C
:1052400070477047002001E001C1121F002AFBD106
:10525000704700002DE9FF4F8DB00F460546002630
:1052600006E025280BD0DDE90F1290476D1C761C57
:1052700028780028F5D111B0304600F0F3B90024A9
:10528000A246A1460122EC4900E0044315F8013F83
:10529000203B02FA03F00842F7D128782A2810D0E0
:1052A0006FF02F022878A0F13001092914D80AEBF9
:1052B0008A0102EB410144F0020400EB010A6D1C7B
:1052C000F0E701CF5FEA000A03D544F40054CAF1C5
:1052D000000A44F002046D1C28782E2817D115F816
:1052E000010F44F004042A280ED06FF02F02287812
:1052F000A0F1300109290AD809EB890102EB41012B
:1053000000EB01096D1CF2E757F8049B6D1C28782F
:105310006C280FD006DC4C2817D068280DD06A28DE
:1053200014D104E0742810D07A280FD10DE044F491
:1053300000140AE044F4801401E044F44014697855
:10534000814202D104F580146D1C6D1C2A786E2AEE
:105350001FD00CDC632A31D004DC002A8BD0582A01
:1053600011D1A3E0642A68D0692A0CD165E0732AC0
:105370002ED004DC6F2A73D0702A04D19BE0752AEA
:105380006FD0782A6ED01046DDE90F129047761C58
:1053900050E1C4F30250022806D0032809D00428A3
:1053A00001CF09D0066045E101CFF117C0E90061E6
:1053B00040E101CF06803DE106703BE117F8040BA8
:1053C0008DF8000000208DF80100EB46012003E07D
:1053D00057F804BB4FF0FF3061074FF0000102D4D3
:1053E0000DE008F10101884649450FDA8045F8DBF8
:1053F0001BF808100029F4D108E008F101018846E3
:105400008142FADB1BF808100029F6D1DDE90F23F1
:10541000AAEB08008146214600F039F9304400EB40
:10542000080604E0DDE90F121BF8010B9047B8F104
:105430000108F7D221464846F7E00A21C4F3025397
:105440004FF0000B0891022B04D001CFC117032BA2
:1054500009D00AE0FF1D27F00707F7E8020108E07E
:1054600032E01FE020E000B2C117042B01D140B2AE
:10547000C117031E71F1000307DA4FF0000CD0EBE7
:105480000C006CEB01012D2302E0230504D52B2336
:105490008DF82430012303E0E30701D02023F7E750
:1054A000984658E00A2110E010210EE010204FF03D
:1054B000000B08900CE010214FF0000B44F00404A6
:1054C0004FF00809089103E008214FF0000B089104
:1054D000C4F30253022B04D001CF0021032B06D0CA
:1054E00006E0FF1D27F00707F7E8020103E080B29E
:1054F000042B00D1C0B24FF0000823072BD5702A2F
:1055000007D0DDF820C08CF0100C5CEA0B0C05D045
:105510000EE040238DF82430012308E050EA010317
:1055200006D030238DF824308DF8252002239846AC
:10553000DDF820C08CF0080C5CEA0B0C0BD150EAB3
:10554000010301D1630706D530238DF824304FF0D5
:105550000108A9F10109582A04D038A20B9208AA1F
:105560000A920BE03AA2F9E75B46089AFAF79CFE2A
:105570000B9B9B5C0A9A521E0A92137050EA01021E
:10558000F2D10A98ADEB000000F1200B600702D5C4
:1055900024F4803401E04FF00109D94502DDA9EB84
:1055A0000B0000E0002000EB0B0141440890AAEB47
:1055B000010AE00306D4DDE90F232146504600F03E
:1055C00066F806444FF0000908E009A911F809003F
:1055D000DDE90F12904709F10109761CC145F4DBA2
:1055E000E0030CD5DDE90F232146504600F04FF8CB
:1055F000064404E0DDE90F1230209047761C08993C
:10560000481E08900029F5DC08E00A980A990078FD
:10561000491C0A91DDE90F129047761CBBF100018D
:10562000ABF1010BF1DC21465046DDE90F2300F020
:105630001CF806446D1C1BE609280100303132338A
:1056400034353637383961626364656600000000BE
:1056500030313233343536373839414243444546A8
:105660000000000030BCBDE8C08F2DE9F0410446C9
:1056700000251E461746880404D405E0394620203C
:10568000B0476D1C641EF9D52846BDE8F0812DE9B0
:10569000F041044600251E469046C80301D5302738
:1056A00000E02027880404D505E041463846B0478D
:1056B0006D1C641EF9D52846BDE8F0814A68002AB1
:1056C00006D00A68531C0B6010704868401E486082
:1056D00070470A68531C0B601070704730B5024663
:1056E000002400210023104800684068C0F1C00079
:1056F0000325B0FBF5F001B238240EE001EB4100C8
:105700000A4D05EB400030F812000344481E01B278
:10571000002900DA3F21601E84B2002CEED138202F
:10572000B3FBF0F080B230BDF01100203013002048
:105730002DE9F04106460024A04640F2145702200D
:10574000FFF7CCFF044614B90020BDE8F0813046D5
:10575000FFF7C4FF804608FB07F0B0FBF4F085B20A
:105760002846F2E710B500247F210748FBF725F80B
:105770000446642001F004F9C02204490248FBF702
:1057800065FC044610BD0000841100203013002089
:1057900070B504460D465B2D03D10120207000201A
:1057A00070BD2078012830D1412D00D1F8E7422D7D
:1057B00001D10120F4E7432D0CD1D4E91C1088421B
:1057C00006DA0121204600F087FF606F401C606709
:1057D0000120E5E7442D0CD1606F002807DD4FF074
:1057E000FF31204600F078FF606F401E60670120A7
:1057F000D6E7372D03D1022020700020D0E7382DC6
:105800001CD1032020700020CAE77E2D16D12078FD
:10581000022806D1204600F0AFFF0020606701207B
:10582000BEE72078032809D1D4E91C02811A20465A
:1058300000F052FF206F60670120B1E70120AFE761
:105840002DE9FE4F06460D46002423E155F82400BD
:1058500093A1FAF79AFD58B992A000F063FB94A0C7
:1058600000F060FB94A000F05DFB00F06BFB10E12A
:1058700055F8240091A1FAF788FD30B990A000F006
:1058800051FB91A000F04EFB03E155F824008FA1DD
:10589000FAF77BFD70B9FDF783FF07463A468DA105
:1058A0008F48FFF7B3FC8E4800F03CFB0020FEF76A
:1058B000EDF9EEE055F824008AA1FAF766FD70B91B
:1058C000FDF76EFF07463A4682A18548FFF79EFC2A
:1058D000834800F027FB0120FEF7D8F9D9E055F8FE
:1058E000240082A1FAF751FD68B9FDF759FF074678
:1058F0003A4678A17A48FFF789FC794800F012FB14
:10590000FEF7DAF9C5E055F8240079A1FAF73DFD74
:1059100058B9FDF745FF07463A4677A17048FFF7AB
:1059200075FC6F4800F0FEFAB3E055F8240077A14B
:10593000FAF72BFD58B9FDF795FE07463A4676A1D2
:105940006748FFF763FC664800F0ECFAA1E055F801
:10595000240076A1FAF719FD58B9FDF747FF07466D
:105960003A4675A15E48FFF751FC5D4800F0DAFA4F
:105970008FE055F8240074A1FAF707FD58B9FDF738
:105980002FFF07463A4673A15548FFF73FFC54489E
:1059900000F0C8FA7DE055F8240073A1FAF7F5FC91
:1059A00058B9FDF703FF87B23A4671A14C48FFF79B
:1059B0002DFC4B4800F0B6FA6BE055F824006FA1BF
:1059C000FAF7E3FCD0B9FDF7EBFE8246FDF74AFE9D
:1059D0000746FDF70BFF8346FDF7E8FE1FFA80F848
:1059E0004FF000095B46524665A13D488DE88003B3
:1059F000FFF70CFC3A4800F095FA4AE055F824000D
:105A000065A1FAF7C2FC68B9FDF7CAFE07463A4637
:105A100030A13348FFF7FAFB314800F083FAFEF774
:105A20004FF836E055F824005DA1FAF7AEFCF0B966
:105A3000601C0446B04212DA55F824005AA1FAF765
:105A4000A4FC18B901205949087008E055F8240051
:105A500057A1FAF79AFC10B900205449087055A1D3
:105A60001F48FFF7D3FB1E4800F05CFA11E055F821
:105A7000240051A1FAF789FC40B951A252A118485B
:105A8000FFF7C4FB164800F04DFA02E050A000F00A
:105A900049FA641CB442FFF6D9AE002000F09CB86D
:105AA000484C50006D6963726F726C207600000084
:105AB000312E352E310000000A000000434C520008
:105AC0001B5B324A000000001B5B480053545254D9
:105AD000520000004F4B20253032580A00000000D1
